{
  "contractName": "RideShare",
  "abi": [
    {
      "inputs": [
        {
          "internalType": "uint256",
          "name": "_rideAmount",
          "type": "uint256"
        },
        {
          "internalType": "string",
          "name": "_start",
          "type": "string"
        },
        {
          "internalType": "string",
          "name": "_destination",
          "type": "string"
        }
      ],
      "stateMutability": "nonpayable",
      "type": "constructor"
    },
    {
      "inputs": [],
      "name": "destination",
      "outputs": [
        {
          "internalType": "string",
          "name": "",
          "type": "string"
        }
      ],
      "stateMutability": "view",
      "type": "function"
    },
    {
      "inputs": [],
      "name": "driver",
      "outputs": [
        {
          "internalType": "address payable",
          "name": "",
          "type": "address"
        }
      ],
      "stateMutability": "view",
      "type": "function"
    },
    {
      "inputs": [],
      "name": "rideAmount",
      "outputs": [
        {
          "internalType": "uint256",
          "name": "",
          "type": "uint256"
        }
      ],
      "stateMutability": "view",
      "type": "function"
    },
    {
      "inputs": [],
      "name": "rideFinished",
      "outputs": [
        {
          "internalType": "bool",
          "name": "",
          "type": "bool"
        }
      ],
      "stateMutability": "view",
      "type": "function"
    },
    {
      "inputs": [],
      "name": "rideStarted",
      "outputs": [
        {
          "internalType": "bool",
          "name": "",
          "type": "bool"
        }
      ],
      "stateMutability": "view",
      "type": "function"
    },
    {
      "inputs": [],
      "name": "rider",
      "outputs": [
        {
          "internalType": "address payable",
          "name": "",
          "type": "address"
        }
      ],
      "stateMutability": "view",
      "type": "function"
    },
    {
      "inputs": [],
      "name": "start",
      "outputs": [
        {
          "internalType": "string",
          "name": "",
          "type": "string"
        }
      ],
      "stateMutability": "view",
      "type": "function"
    },
    {
      "inputs": [],
      "name": "acceptRide",
      "outputs": [],
      "stateMutability": "payable",
      "type": "function"
    },
    {
      "inputs": [],
      "name": "startRide",
      "outputs": [],
      "stateMutability": "nonpayable",
      "type": "function"
    },
    {
      "inputs": [],
      "name": "finishRide",
      "outputs": [],
      "stateMutability": "nonpayable",
      "type": "function"
    }
  ],
  "bytecode": "0x60806040526005805461ffff1916905534801561001b57600080fd5b506040516108ac3803806108ac8339818101604052606081101561003e57600080fd5b81516020830180516040519294929383019291908464010000000082111561006557600080fd5b90830190602082018581111561007a57600080fd5b825164010000000081118282018810171561009457600080fd5b82525081516020918201929091019080838360005b838110156100c15781810151838201526020016100a9565b50505050905090810190601f1680156100ee5780820380516001836020036101000a031916815260200191505b506040526020018051604051939291908464010000000082111561011157600080fd5b90830190602082018581111561012657600080fd5b825164010000000081118282018810171561014057600080fd5b82525081516020918201929091019080838360005b8381101561016d578181015183820152602001610155565b50505050905090810190601f16801561019a5780820380516001836020036101000a031916815260200191505b506040525050600080546001600160a01b0319163317905550600283905581516101cb9060039060208501906101e8565b5080516101df9060049060208401906101e8565b5050505061027b565b828054600181600116156101000203166002900490600052602060002090601f016020900481019282601f1061022957805160ff1916838001178555610256565b82800160010185558215610256579182015b8281111561025657825182559160200191906001019061023b565b50610262929150610266565b5090565b5b808211156102625760008155600101610267565b6106228061028a6000396000f3fe6080604052600436106100915760003560e01c80636ecc5d62116100595780636ecc5d62146101365780637ec8a3321461014b5780639e7ac5c314610160578063b269681d14610175578063be9a6555146101ff57610091565b80630d4d6c0c1461009657806312e1d678146100a05780632b026e42146100c95780634bc1348f146100f057806353c0a00614610105575b600080fd5b61009e610214565b005b3480156100ac57600080fd5b506100b56102b8565b604080519115158252519081900360200190f35b3480156100d557600080fd5b506100de6102c1565b60408051918252519081900360200190f35b3480156100fc57600080fd5b5061009e6102c7565b34801561011157600080fd5b5061011a610408565b604080516001600160a01b039092168252519081900360200190f35b34801561014257600080fd5b5061011a610417565b34801561015757600080fd5b5061009e610426565b34801561016c57600080fd5b506100b561047e565b34801561018157600080fd5b5061018a61048c565b6040805160208082528351818301528351919283929083019185019080838360005b838110156101c45781810151838201526020016101ac565b50505050905090810190601f1680156101f15780820380516001836020036101000a031916815260200191505b509250505060405180910390f35b34801561020b57600080fd5b5061018a61051a565b60025434146102545760405162461bcd60e51b81526004018080602001828103825260238152602001806105ca6023913960400191505060405180910390fd5b60055460ff16156102a4576040805162461bcd60e51b81526020600482015260156024820152742a3432903934b232903430b99039ba30b93a32b21760591b604482015290519081900360640190fd5b600180546001600160a01b03191633179055565b60055460ff1681565b60025481565b6000546001600160a01b03163314806102ea57506001546001600160a01b031633145b6103255760405162461bcd60e51b81526004018080602001828103825260318152602001806105996031913960400191505060405180910390fd5b60055460ff1661037c576040805162461bcd60e51b815260206004820152601960248201527f5468652072696465206d75737420626520737461727465642e00000000000000604482015290519081900360640190fd5b6000546001600160a01b03163314156103a3576005805461ff001916610100179055610406565b6001546001600160a01b0316331480156103c45750600554610100900460ff165b1561040657600080546002546040516001600160a01b039092169281156108fc029290818181858888f19350505050158015610404573d6000803e3d6000fd5b505b565b6001546001600160a01b031681565b6000546001600160a01b031681565b6000546001600160a01b0316331461046f5760405162461bcd60e51b81526004018080602001828103825260238152602001806105766023913960400191505060405180910390fd5b6005805460ff19166001179055565b600554610100900460ff1681565b6004805460408051602060026001851615610100026000190190941693909304601f810184900484028201840190925281815292918301828280156105125780601f106104e757610100808354040283529160200191610512565b820191906000526020600020905b8154815290600101906020018083116104f557829003601f168201915b505050505081565b6003805460408051602060026001851615610100026000190190941693909304601f810184900484028201840190925281815292918301828280156105125780601f106104e75761010080835404028352916020019161051256fe4f6e6c7920746865206472697665722063616e2073746172742074686520726964652e4f6e6c792074686520647269766572206f72207468652072696465722063616e2066696e6973682074686520726964652e5061796d656e74206d757374206d6174636820746865207269646520616d6f756e742ea2646970667358221220d1279aa4a6918898e7f4290e840eada161d91448ec1504d29caf687e62064e3564736f6c634300060c0033",
  "immutableReferences": {},
  "source": "// SPDX-License-Identifier: MIT\npragma solidity ^0.6.12;\n\ncontract RideShare {\n    address payable public driver;\n    address payable public rider;\n    uint256 public rideAmount;\n    string public start;\n    string public destination;\n    bool public rideStarted = false;\n    bool public rideFinished = false;\n\n    constructor(uint256 _rideAmount, string memory _start, string memory _destination) public {\n        driver = payable(msg.sender);\n        rideAmount = _rideAmount;\n        start = _start;\n        destination = _destination;\n    }\n\n    function acceptRide() public payable {\n        require(msg.value == rideAmount, \"Payment must match the ride amount.\");\n        require(!rideStarted, \"The ride has started.\");\n        rider = msg.sender;\n    }\n\n    function startRide() public{\n        require(msg.sender == driver, \"Only the driver can start the ride.\");\n        rideStarted = true;\n    }\n\n    function finishRide() public {\n        require(msg.sender == driver || msg.sender == rider, \"Only the driver or the rider can finish the ride.\");\n        require(rideStarted, \"The ride must be started.\");\n\n        if (msg.sender == driver) {\n            rideFinished = true;\n        } else if (msg.sender == rider && rideFinished) {\n            driver.transfer(rideAmount);\n        }\n    }\n}\n",
  "sourcePath": "D:\\Desktop\\RideShare-main\\contracts\\RideShare.sol",
  "compiler": {
    "name": "solc",
    "version": "0.6.12+commit.27d51765.Emscripten.clang"
  },
  "schemaVersion": "3.4.16",
  "updatedAt": "2024-04-08T08:15:06.205Z",
  "devdoc": {
    "kind": "dev",
    "methods": {},
    "version": 1
  },
  "userdoc": {
    "kind": "user",
    "methods": {},
    "version": 1
  }
}